{
  "_format": "hh-sol-artifact-1",
  "contractName": "NFTMarketplace",
  "sourceName": "contracts/NFTMarketplace.sol",
  "abi": [
    {
      "inputs": [],
      "stateMutability": "nonpayable",
      "type": "constructor"
    },
    {
      "anonymous": false,
      "inputs": [
        {
          "indexed": true,
          "internalType": "address",
          "name": "owner",
          "type": "address"
        },
        {
          "indexed": true,
          "internalType": "address",
          "name": "approved",
          "type": "address"
        },
        {
          "indexed": true,
          "internalType": "uint256",
          "name": "tokenId",
          "type": "uint256"
        }
      ],
      "name": "Approval",
      "type": "event"
    },
    {
      "anonymous": false,
      "inputs": [
        {
          "indexed": true,
          "internalType": "address",
          "name": "owner",
          "type": "address"
        },
        {
          "indexed": true,
          "internalType": "address",
          "name": "operator",
          "type": "address"
        },
        {
          "indexed": false,
          "internalType": "bool",
          "name": "approved",
          "type": "bool"
        }
      ],
      "name": "ApprovalForAll",
      "type": "event"
    },
    {
      "anonymous": false,
      "inputs": [
        {
          "indexed": true,
          "internalType": "uint256",
          "name": "tokenId",
          "type": "uint256"
        },
        {
          "indexed": false,
          "internalType": "address",
          "name": "seller",
          "type": "address"
        },
        {
          "indexed": false,
          "internalType": "address",
          "name": "owner",
          "type": "address"
        },
        {
          "indexed": false,
          "internalType": "uint256",
          "name": "price",
          "type": "uint256"
        },
        {
          "indexed": false,
          "internalType": "bool",
          "name": "sold",
          "type": "bool"
        }
      ],
      "name": "MarketItemCreated",
      "type": "event"
    },
    {
      "anonymous": false,
      "inputs": [
        {
          "indexed": true,
          "internalType": "address",
          "name": "from",
          "type": "address"
        },
        {
          "indexed": true,
          "internalType": "address",
          "name": "to",
          "type": "address"
        },
        {
          "indexed": true,
          "internalType": "uint256",
          "name": "tokenId",
          "type": "uint256"
        }
      ],
      "name": "Transfer",
      "type": "event"
    },
    {
      "inputs": [
        {
          "internalType": "address",
          "name": "to",
          "type": "address"
        },
        {
          "internalType": "uint256",
          "name": "tokenId",
          "type": "uint256"
        }
      ],
      "name": "approve",
      "outputs": [],
      "stateMutability": "nonpayable",
      "type": "function"
    },
    {
      "inputs": [
        {
          "internalType": "address",
          "name": "owner",
          "type": "address"
        }
      ],
      "name": "balanceOf",
      "outputs": [
        {
          "internalType": "uint256",
          "name": "",
          "type": "uint256"
        }
      ],
      "stateMutability": "view",
      "type": "function"
    },
    {
      "inputs": [
        {
          "internalType": "uint256",
          "name": "tokenId",
          "type": "uint256"
        }
      ],
      "name": "createMarketSale",
      "outputs": [],
      "stateMutability": "payable",
      "type": "function"
    },
    {
      "inputs": [
        {
          "internalType": "string",
          "name": "tokenURI",
          "type": "string"
        },
        {
          "internalType": "uint256",
          "name": "price",
          "type": "uint256"
        }
      ],
      "name": "createToken",
      "outputs": [
        {
          "internalType": "uint256",
          "name": "",
          "type": "uint256"
        }
      ],
      "stateMutability": "payable",
      "type": "function"
    },
    {
      "inputs": [],
      "name": "fetchItemsListed",
      "outputs": [
        {
          "components": [
            {
              "internalType": "uint256",
              "name": "tokenId",
              "type": "uint256"
            },
            {
              "internalType": "address payable",
              "name": "seller",
              "type": "address"
            },
            {
              "internalType": "address payable",
              "name": "owner",
              "type": "address"
            },
            {
              "internalType": "uint256",
              "name": "price",
              "type": "uint256"
            },
            {
              "internalType": "bool",
              "name": "sold",
              "type": "bool"
            }
          ],
          "internalType": "struct NFTMarketplace.MarketItem[]",
          "name": "",
          "type": "tuple[]"
        }
      ],
      "stateMutability": "view",
      "type": "function"
    },
    {
      "inputs": [],
      "name": "fetchMarketItems",
      "outputs": [
        {
          "components": [
            {
              "internalType": "uint256",
              "name": "tokenId",
              "type": "uint256"
            },
            {
              "internalType": "address payable",
              "name": "seller",
              "type": "address"
            },
            {
              "internalType": "address payable",
              "name": "owner",
              "type": "address"
            },
            {
              "internalType": "uint256",
              "name": "price",
              "type": "uint256"
            },
            {
              "internalType": "bool",
              "name": "sold",
              "type": "bool"
            }
          ],
          "internalType": "struct NFTMarketplace.MarketItem[]",
          "name": "",
          "type": "tuple[]"
        }
      ],
      "stateMutability": "view",
      "type": "function"
    },
    {
      "inputs": [],
      "name": "fetchMyNFTs",
      "outputs": [
        {
          "components": [
            {
              "internalType": "uint256",
              "name": "tokenId",
              "type": "uint256"
            },
            {
              "internalType": "address payable",
              "name": "seller",
              "type": "address"
            },
            {
              "internalType": "address payable",
              "name": "owner",
              "type": "address"
            },
            {
              "internalType": "uint256",
              "name": "price",
              "type": "uint256"
            },
            {
              "internalType": "bool",
              "name": "sold",
              "type": "bool"
            }
          ],
          "internalType": "struct NFTMarketplace.MarketItem[]",
          "name": "",
          "type": "tuple[]"
        }
      ],
      "stateMutability": "view",
      "type": "function"
    },
    {
      "inputs": [
        {
          "internalType": "uint256",
          "name": "tokenId",
          "type": "uint256"
        }
      ],
      "name": "getApproved",
      "outputs": [
        {
          "internalType": "address",
          "name": "",
          "type": "address"
        }
      ],
      "stateMutability": "view",
      "type": "function"
    },
    {
      "inputs": [],
      "name": "getListingPrice",
      "outputs": [
        {
          "internalType": "uint256",
          "name": "",
          "type": "uint256"
        }
      ],
      "stateMutability": "view",
      "type": "function"
    },
    {
      "inputs": [
        {
          "internalType": "address",
          "name": "owner",
          "type": "address"
        },
        {
          "internalType": "address",
          "name": "operator",
          "type": "address"
        }
      ],
      "name": "isApprovedForAll",
      "outputs": [
        {
          "internalType": "bool",
          "name": "",
          "type": "bool"
        }
      ],
      "stateMutability": "view",
      "type": "function"
    },
    {
      "inputs": [],
      "name": "name",
      "outputs": [
        {
          "internalType": "string",
          "name": "",
          "type": "string"
        }
      ],
      "stateMutability": "view",
      "type": "function"
    },
    {
      "inputs": [
        {
          "internalType": "uint256",
          "name": "tokenId",
          "type": "uint256"
        }
      ],
      "name": "ownerOf",
      "outputs": [
        {
          "internalType": "address",
          "name": "",
          "type": "address"
        }
      ],
      "stateMutability": "view",
      "type": "function"
    },
    {
      "inputs": [
        {
          "internalType": "uint256",
          "name": "tokenId",
          "type": "uint256"
        },
        {
          "internalType": "uint256",
          "name": "price",
          "type": "uint256"
        }
      ],
      "name": "resellToken",
      "outputs": [],
      "stateMutability": "payable",
      "type": "function"
    },
    {
      "inputs": [
        {
          "internalType": "address",
          "name": "from",
          "type": "address"
        },
        {
          "internalType": "address",
          "name": "to",
          "type": "address"
        },
        {
          "internalType": "uint256",
          "name": "tokenId",
          "type": "uint256"
        }
      ],
      "name": "safeTransferFrom",
      "outputs": [],
      "stateMutability": "nonpayable",
      "type": "function"
    },
    {
      "inputs": [
        {
          "internalType": "address",
          "name": "from",
          "type": "address"
        },
        {
          "internalType": "address",
          "name": "to",
          "type": "address"
        },
        {
          "internalType": "uint256",
          "name": "tokenId",
          "type": "uint256"
        },
        {
          "internalType": "bytes",
          "name": "data",
          "type": "bytes"
        }
      ],
      "name": "safeTransferFrom",
      "outputs": [],
      "stateMutability": "nonpayable",
      "type": "function"
    },
    {
      "inputs": [
        {
          "internalType": "address",
          "name": "operator",
          "type": "address"
        },
        {
          "internalType": "bool",
          "name": "approved",
          "type": "bool"
        }
      ],
      "name": "setApprovalForAll",
      "outputs": [],
      "stateMutability": "nonpayable",
      "type": "function"
    },
    {
      "inputs": [
        {
          "internalType": "bytes4",
          "name": "interfaceId",
          "type": "bytes4"
        }
      ],
      "name": "supportsInterface",
      "outputs": [
        {
          "internalType": "bool",
          "name": "",
          "type": "bool"
        }
      ],
      "stateMutability": "view",
      "type": "function"
    },
    {
      "inputs": [],
      "name": "symbol",
      "outputs": [
        {
          "internalType": "string",
          "name": "",
          "type": "string"
        }
      ],
      "stateMutability": "view",
      "type": "function"
    },
    {
      "inputs": [
        {
          "internalType": "uint256",
          "name": "tokenId",
          "type": "uint256"
        }
      ],
      "name": "tokenURI",
      "outputs": [
        {
          "internalType": "string",
          "name": "",
          "type": "string"
        }
      ],
      "stateMutability": "view",
      "type": "function"
    },
    {
      "inputs": [
        {
          "internalType": "address",
          "name": "from",
          "type": "address"
        },
        {
          "internalType": "address",
          "name": "to",
          "type": "address"
        },
        {
          "internalType": "uint256",
          "name": "tokenId",
          "type": "uint256"
        }
      ],
      "name": "transferFrom",
      "outputs": [],
      "stateMutability": "nonpayable",
      "type": "function"
    },
    {
      "inputs": [
        {
          "internalType": "uint256",
          "name": "_listingPrice",
          "type": "uint256"
        }
      ],
      "name": "updateListingPrice",
      "outputs": [],
      "stateMutability": "payable",
      "type": "function"
    }
  ],
  "bytecode": "0x60806040526658d15e176280006009553480156200001c57600080fd5b506040518060400160405280601081526020017f4d657461766572736520546f6b656e73000000000000000000000000000000008152506040518060400160405280600481526020017f4d4554540000000000000000000000000000000000000000000000000000000081525081600090816200009a919062000370565b508060019081620000ac919062000370565b50505033600a60006101000a81548173ffffffffffffffffffffffffffffffffffffffff021916908373ffffffffffffffffffffffffffffffffffffffff16021790555062000457565b600081519050919050565b7f4e487b7100000000000000000000000000000000000000000000000000000000600052604160045260246000fd5b7f4e487b7100000000000000000000000000000000000000000000000000000000600052602260045260246000fd5b600060028204905060018216806200017857607f821691505b6020821081036200018e576200018d62000130565b5b50919050565b60008190508160005260206000209050919050565b60006020601f8301049050919050565b600082821b905092915050565b600060088302620001f87fffffffffffffffffffffffffffffffffffffffffffffffffffffffffffffffff82620001b9565b620002048683620001b9565b95508019841693508086168417925050509392505050565b6000819050919050565b6000819050919050565b6000620002516200024b62000245846200021c565b62000226565b6200021c565b9050919050565b6000819050919050565b6200026d8362000230565b620002856200027c8262000258565b848454620001c6565b825550505050565b600090565b6200029c6200028d565b620002a981848462000262565b505050565b5b81811015620002d157620002c560008262000292565b600181019050620002af565b5050565b601f8211156200032057620002ea8162000194565b620002f584620001a9565b8101602085101562000305578190505b6200031d6200031485620001a9565b830182620002ae565b50505b505050565b600082821c905092915050565b6000620003456000198460080262000325565b1980831691505092915050565b600062000360838362000332565b9150826002028217905092915050565b6200037b82620000f6565b67ffffffffffffffff81111562000397576200039662000101565b5b620003a382546200015f565b620003b0828285620002d5565b600060209050601f831160018114620003e85760008415620003d3578287015190505b620003df858262000352565b8655506200044f565b601f198416620003f88662000194565b60005b828110156200042257848901518255600182019150602085019450602081019050620003fb565b868310156200044257848901516200043e601f89168262000332565b8355505b6001600288020188555050505b505050505050565b61423680620004676000396000f3fe60806040526004361061012a5760003560e01c80636352211e116100ab578063ae677aa31161006f578063ae677aa3146103f9578063b88d4fde14610415578063be9af5361461043e578063c87b56dd1461045a578063e219fc7514610497578063e985e9c5146104b35761012a565b80636352211e146102fb57806370a082311461033857806372b3b6201461037557806395d89b41146103a5578063a22cb465146103d05761012a565b806312e85585116100f257806312e8558514610228578063202e37401461025357806323b872dd1461027e57806342842e0e146102a757806345f8fa80146102d05761012a565b806301ffc9a71461012f57806306fdde031461016c578063081812fc14610197578063095ea7b3146101d45780630f08efe0146101fd575b600080fd5b34801561013b57600080fd5b5061015660048036038101906101519190612a06565b6104f0565b6040516101639190612a4e565b60405180910390f35b34801561017857600080fd5b506101816105d2565b60405161018e9190612af9565b60405180910390f35b3480156101a357600080fd5b506101be60048036038101906101b99190612b51565b610664565b6040516101cb9190612bbf565b60405180910390f35b3480156101e057600080fd5b506101fb60048036038101906101f69190612c06565b6106aa565b005b34801561020957600080fd5b506102126107c1565b60405161021f9190612d9c565b60405180910390f35b34801561023457600080fd5b5061023d610a29565b60405161024a9190612dcd565b60405180910390f35b34801561025f57600080fd5b50610268610a33565b6040516102759190612d9c565b60405180910390f35b34801561028a57600080fd5b506102a560048036038101906102a09190612de8565b610d1f565b005b3480156102b357600080fd5b506102ce60048036038101906102c99190612de8565b610d7f565b005b3480156102dc57600080fd5b506102e5610d9f565b6040516102f29190612d9c565b60405180910390f35b34801561030757600080fd5b50610322600480360381019061031d9190612b51565b61108b565b60405161032f9190612bbf565b60405180910390f35b34801561034457600080fd5b5061035f600480360381019061035a9190612e3b565b61113c565b60405161036c9190612dcd565b60405180910390f35b61038f600480360381019061038a9190612f9d565b6111f3565b60405161039c9190612dcd565b60405180910390f35b3480156103b157600080fd5b506103ba611235565b6040516103c79190612af9565b60405180910390f35b3480156103dc57600080fd5b506103f760048036038101906103f29190613025565b6112c7565b005b610413600480360381019061040e9190612b51565b6112dd565b005b34801561042157600080fd5b5061043c60048036038101906104379190613106565b611407565b005b61045860048036038101906104539190612b51565b611469565b005b34801561046657600080fd5b50610481600480360381019061047c9190612b51565b6116a1565b60405161048e9190612af9565b60405180910390f35b6104b160048036038101906104ac9190613189565b6117b3565b005b3480156104bf57600080fd5b506104da60048036038101906104d591906131c9565b6119a8565b6040516104e79190612a4e565b60405180910390f35b60007f80ac58cd000000000000000000000000000000000000000000000000000000007bffffffffffffffffffffffffffffffffffffffffffffffffffffffff1916827bffffffffffffffffffffffffffffffffffffffffffffffffffffffff191614806105bb57507f5b5e139f000000000000000000000000000000000000000000000000000000007bffffffffffffffffffffffffffffffffffffffffffffffffffffffff1916827bffffffffffffffffffffffffffffffffffffffffffffffffffffffff1916145b806105cb57506105ca82611a3c565b5b9050919050565b6060600080546105e190613238565b80601f016020809104026020016040519081016040528092919081815260200182805461060d90613238565b801561065a5780601f1061062f5761010080835404028352916020019161065a565b820191906000526020600020905b81548152906001019060200180831161063d57829003601f168201915b5050505050905090565b600061066f82611aa6565b6004600083815260200190815260200160002060009054906101000a900473ffffffffffffffffffffffffffffffffffffffff169050919050565b60006106b58261108b565b90508073ffffffffffffffffffffffffffffffffffffffff168373ffffffffffffffffffffffffffffffffffffffff1603610725576040517f08c379a000000000000000000000000000000000000000000000000000000000815260040161071c906132db565b60405180910390fd5b8073ffffffffffffffffffffffffffffffffffffffff16610744611af1565b73ffffffffffffffffffffffffffffffffffffffff16148061077357506107728161076d611af1565b6119a8565b5b6107b2576040517f08c379a00000000000000000000000000000000000000000000000000000000081526004016107a99061336d565b60405180910390fd5b6107bc8383611af9565b505050565b606060006107cf6007611bb2565b905060006107dd6008611bb2565b6107e76007611bb2565b6107f191906133bc565b90506000808267ffffffffffffffff8111156108105761080f612e72565b5b60405190808252806020026020018201604052801561084957816020015b61083661293d565b81526020019060019003908161082e5790505b50905060005b84811015610a1e573073ffffffffffffffffffffffffffffffffffffffff16600b600060018461087f91906133f0565b815260200190815260200160002060020160009054906101000a900473ffffffffffffffffffffffffffffffffffffffff1673ffffffffffffffffffffffffffffffffffffffff1603610a0b5760006001826108db91906133f0565b90506000600b60008381526020019081526020016000209050806040518060a0016040529081600082015481526020016001820160009054906101000a900473ffffffffffffffffffffffffffffffffffffffff1673ffffffffffffffffffffffffffffffffffffffff1673ffffffffffffffffffffffffffffffffffffffff1681526020016002820160009054906101000a900473ffffffffffffffffffffffffffffffffffffffff1673ffffffffffffffffffffffffffffffffffffffff1673ffffffffffffffffffffffffffffffffffffffff168152602001600382015481526020016004820160009054906101000a900460ff1615151515815250508486815181106109ee576109ed613424565b5b6020026020010181905250600185610a0691906133f0565b945050505b8080610a1690613453565b91505061084f565b508094505050505090565b6000600954905090565b60606000610a416007611bb2565b905060008060005b83811015610ae9573373ffffffffffffffffffffffffffffffffffffffff16600b6000600184610a7991906133f0565b815260200190815260200160002060020160009054906101000a900473ffffffffffffffffffffffffffffffffffffffff1673ffffffffffffffffffffffffffffffffffffffff1603610ad657600183610ad391906133f0565b92505b8080610ae190613453565b915050610a49565b5060008267ffffffffffffffff811115610b0657610b05612e72565b5b604051908082528060200260200182016040528015610b3f57816020015b610b2c61293d565b815260200190600190039081610b245790505b50905060005b84811015610d14573373ffffffffffffffffffffffffffffffffffffffff16600b6000600184610b7591906133f0565b815260200190815260200160002060020160009054906101000a900473ffffffffffffffffffffffffffffffffffffffff1673ffffffffffffffffffffffffffffffffffffffff1603610d01576000600182610bd191906133f0565b90506000600b60008381526020019081526020016000209050806040518060a0016040529081600082015481526020016001820160009054906101000a900473ffffffffffffffffffffffffffffffffffffffff1673ffffffffffffffffffffffffffffffffffffffff1673ffffffffffffffffffffffffffffffffffffffff1681526020016002820160009054906101000a900473ffffffffffffffffffffffffffffffffffffffff1673ffffffffffffffffffffffffffffffffffffffff1673ffffffffffffffffffffffffffffffffffffffff168152602001600382015481526020016004820160009054906101000a900460ff161515151581525050848681518110610ce457610ce3613424565b5b6020026020010181905250600185610cfc91906133f0565b945050505b8080610d0c90613453565b915050610b45565b508094505050505090565b610d30610d2a611af1565b82611bc0565b610d6f576040517f08c379a0000000000000000000000000000000000000000000000000000000008152600401610d669061350d565b60405180910390fd5b610d7a838383611c55565b505050565b610d9a83838360405180602001604052806000815250611407565b505050565b60606000610dad6007611bb2565b905060008060005b83811015610e55573373ffffffffffffffffffffffffffffffffffffffff16600b6000600184610de591906133f0565b815260200190815260200160002060010160009054906101000a900473ffffffffffffffffffffffffffffffffffffffff1673ffffffffffffffffffffffffffffffffffffffff1603610e4257600183610e3f91906133f0565b92505b8080610e4d90613453565b915050610db5565b5060008267ffffffffffffffff811115610e7257610e71612e72565b5b604051908082528060200260200182016040528015610eab57816020015b610e9861293d565b815260200190600190039081610e905790505b50905060005b84811015611080573373ffffffffffffffffffffffffffffffffffffffff16600b6000600184610ee191906133f0565b815260200190815260200160002060010160009054906101000a900473ffffffffffffffffffffffffffffffffffffffff1673ffffffffffffffffffffffffffffffffffffffff160361106d576000600182610f3d91906133f0565b90506000600b60008381526020019081526020016000209050806040518060a0016040529081600082015481526020016001820160009054906101000a900473ffffffffffffffffffffffffffffffffffffffff1673ffffffffffffffffffffffffffffffffffffffff1673ffffffffffffffffffffffffffffffffffffffff1681526020016002820160009054906101000a900473ffffffffffffffffffffffffffffffffffffffff1673ffffffffffffffffffffffffffffffffffffffff1673ffffffffffffffffffffffffffffffffffffffff168152602001600382015481526020016004820160009054906101000a900460ff1615151515815250508486815181106110505761104f613424565b5b602002602001018190525060018561106891906133f0565b945050505b808061107890613453565b915050610eb1565b508094505050505090565b6000806002600084815260200190815260200160002060009054906101000a900473ffffffffffffffffffffffffffffffffffffffff169050600073ffffffffffffffffffffffffffffffffffffffff168173ffffffffffffffffffffffffffffffffffffffff1603611133576040517f08c379a000000000000000000000000000000000000000000000000000000000815260040161112a90613579565b60405180910390fd5b80915050919050565b60008073ffffffffffffffffffffffffffffffffffffffff168273ffffffffffffffffffffffffffffffffffffffff16036111ac576040517f08c379a00000000000000000000000000000000000000000000000000000000081526004016111a39061360b565b60405180910390fd5b600360008373ffffffffffffffffffffffffffffffffffffffff1673ffffffffffffffffffffffffffffffffffffffff168152602001908152602001600020549050919050565b60006111ff6007611ebb565b600061120b6007611bb2565b90506112173382611ed1565b61122181856120aa565b61122b8184612117565b8091505092915050565b60606001805461124490613238565b80601f016020809104026020016040519081016040528092919081815260200182805461127090613238565b80156112bd5780601f10611292576101008083540402835291602001916112bd565b820191906000526020600020905b8154815290600101906020018083116112a057829003601f168201915b5050505050905090565b6112d96112d2611af1565b838361231a565b5050565b600a60009054906101000a900473ffffffffffffffffffffffffffffffffffffffff1673ffffffffffffffffffffffffffffffffffffffff163373ffffffffffffffffffffffffffffffffffffffff161461136d576040517f08c379a00000000000000000000000000000000000000000000000000000000081526004016113649061369d565b60405180910390fd5b3373ffffffffffffffffffffffffffffffffffffffff16600a60009054906101000a900473ffffffffffffffffffffffffffffffffffffffff1673ffffffffffffffffffffffffffffffffffffffff16146113fd576040517f08c379a00000000000000000000000000000000000000000000000000000000081526004016113f49061372f565b60405180910390fd5b8060098190555050565b611418611412611af1565b83611bc0565b611457576040517f08c379a000000000000000000000000000000000000000000000000000000000815260040161144e9061350d565b60405180910390fd5b61146384848484612486565b50505050565b6000600b60008381526020019081526020016000206003015490508034146114c6576040517f08c379a00000000000000000000000000000000000000000000000000000000081526004016114bd906137c1565b60405180910390fd5b33600b600084815260200190815260200160002060020160006101000a81548173ffffffffffffffffffffffffffffffffffffffff021916908373ffffffffffffffffffffffffffffffffffffffff1602179055506001600b600084815260200190815260200160002060040160006101000a81548160ff0219169083151502179055506000600b600084815260200190815260200160002060010160006101000a81548173ffffffffffffffffffffffffffffffffffffffff021916908373ffffffffffffffffffffffffffffffffffffffff1602179055506115aa6008611ebb565b6115b5303384611c55565b600a60009054906101000a900473ffffffffffffffffffffffffffffffffffffffff1673ffffffffffffffffffffffffffffffffffffffff166108fc6009549081150290604051600060405180830381858888f1935050505015801561161f573d6000803e3d6000fd5b50600b600083815260200190815260200160002060010160009054906101000a900473ffffffffffffffffffffffffffffffffffffffff1673ffffffffffffffffffffffffffffffffffffffff166108fc349081150290604051600060405180830381858888f1935050505015801561169c573d6000803e3d6000fd5b505050565b60606116ac82611aa6565b60006006600084815260200190815260200160002080546116cc90613238565b80601f01602080910402602001604051908101604052809291908181526020018280546116f890613238565b80156117455780601f1061171a57610100808354040283529160200191611745565b820191906000526020600020905b81548152906001019060200180831161172857829003601f168201915b5050505050905060006117566124e2565b9050600081510361176b5781925050506117ae565b6000825111156117a057808260405160200161178892919061381d565b604051602081830303815290604052925050506117ae565b6117a9846124f9565b925050505b919050565b3373ffffffffffffffffffffffffffffffffffffffff16600b600084815260200190815260200160002060020160009054906101000a900473ffffffffffffffffffffffffffffffffffffffff1673ffffffffffffffffffffffffffffffffffffffff1614611857576040517f08c379a000000000000000000000000000000000000000000000000000000000815260040161184e906138b3565b60405180910390fd5b600954341461189b576040517f08c379a000000000000000000000000000000000000000000000000000000000815260040161189290613945565b60405180910390fd5b6000600b600084815260200190815260200160002060040160006101000a81548160ff02191690831515021790555080600b60008481526020019081526020016000206003018190555033600b600084815260200190815260200160002060010160006101000a81548173ffffffffffffffffffffffffffffffffffffffff021916908373ffffffffffffffffffffffffffffffffffffffff16021790555030600b600084815260200190815260200160002060020160006101000a81548173ffffffffffffffffffffffffffffffffffffffff021916908373ffffffffffffffffffffffffffffffffffffffff1602179055506119996008612561565b6119a4333084611c55565b5050565b6000600560008473ffffffffffffffffffffffffffffffffffffffff1673ffffffffffffffffffffffffffffffffffffffff16815260200190815260200160002060008373ffffffffffffffffffffffffffffffffffffffff1673ffffffffffffffffffffffffffffffffffffffff16815260200190815260200160002060009054906101000a900460ff16905092915050565b60007f01ffc9a7000000000000000000000000000000000000000000000000000000007bffffffffffffffffffffffffffffffffffffffffffffffffffffffff1916827bffffffffffffffffffffffffffffffffffffffffffffffffffffffff1916149050919050565b611aaf816125bd565b611aee576040517f08c379a0000000000000000000000000000000000000000000000000000000008152600401611ae590613579565b60405180910390fd5b50565b600033905090565b816004600083815260200190815260200160002060006101000a81548173ffffffffffffffffffffffffffffffffffffffff021916908373ffffffffffffffffffffffffffffffffffffffff160217905550808273ffffffffffffffffffffffffffffffffffffffff16611b6c8361108b565b73ffffffffffffffffffffffffffffffffffffffff167f8c5be1e5ebec7d5bd14f71427d1e84f3dd0314c0f7b2291e5b200ac8c7c3b92560405160405180910390a45050565b600081600001549050919050565b600080611bcc8361108b565b90508073ffffffffffffffffffffffffffffffffffffffff168473ffffffffffffffffffffffffffffffffffffffff161480611c0e5750611c0d81856119a8565b5b80611c4c57508373ffffffffffffffffffffffffffffffffffffffff16611c3484610664565b73ffffffffffffffffffffffffffffffffffffffff16145b91505092915050565b8273ffffffffffffffffffffffffffffffffffffffff16611c758261108b565b73ffffffffffffffffffffffffffffffffffffffff1614611ccb576040517f08c379a0000000000000000000000000000000000000000000000000000000008152600401611cc2906139d7565b60405180910390fd5b600073ffffffffffffffffffffffffffffffffffffffff168273ffffffffffffffffffffffffffffffffffffffff1603611d3a576040517f08c379a0000000000000000000000000000000000000000000000000000000008152600401611d3190613a69565b60405180910390fd5b611d45838383612629565b611d50600082611af9565b6001600360008573ffffffffffffffffffffffffffffffffffffffff1673ffffffffffffffffffffffffffffffffffffffff1681526020019081526020016000206000828254611da091906133bc565b925050819055506001600360008473ffffffffffffffffffffffffffffffffffffffff1673ffffffffffffffffffffffffffffffffffffffff1681526020019081526020016000206000828254611df791906133f0565b92505081905550816002600083815260200190815260200160002060006101000a81548173ffffffffffffffffffffffffffffffffffffffff021916908373ffffffffffffffffffffffffffffffffffffffff160217905550808273ffffffffffffffffffffffffffffffffffffffff168473ffffffffffffffffffffffffffffffffffffffff167fddf252ad1be2c89b69c2b068fc378daa952ba7f163c4a11628f55a4df523b3ef60405160405180910390a4611eb683838361262e565b505050565b6001816000016000828254019250508190555050565b600073ffffffffffffffffffffffffffffffffffffffff168273ffffffffffffffffffffffffffffffffffffffff1603611f40576040517f08c379a0000000000000000000000000000000000000000000000000000000008152600401611f3790613ad5565b60405180910390fd5b611f49816125bd565b15611f89576040517f08c379a0000000000000000000000000000000000000000000000000000000008152600401611f8090613b41565b60405180910390fd5b611f9560008383612629565b6001600360008473ffffffffffffffffffffffffffffffffffffffff1673ffffffffffffffffffffffffffffffffffffffff1681526020019081526020016000206000828254611fe591906133f0565b92505081905550816002600083815260200190815260200160002060006101000a81548173ffffffffffffffffffffffffffffffffffffffff021916908373ffffffffffffffffffffffffffffffffffffffff160217905550808273ffffffffffffffffffffffffffffffffffffffff16600073ffffffffffffffffffffffffffffffffffffffff167fddf252ad1be2c89b69c2b068fc378daa952ba7f163c4a11628f55a4df523b3ef60405160405180910390a46120a66000838361262e565b5050565b6120b3826125bd565b6120f2576040517f08c379a00000000000000000000000000000000000000000000000000000000081526004016120e990613bd3565b60405180910390fd5b806006600084815260200190815260200160002090816121129190613d9f565b505050565b6000811161215a576040517f08c379a000000000000000000000000000000000000000000000000000000000815260040161215190613ebd565b60405180910390fd5b600954341461219e576040517f08c379a000000000000000000000000000000000000000000000000000000000815260040161219590613945565b60405180910390fd5b6040518060a001604052808381526020013373ffffffffffffffffffffffffffffffffffffffff1681526020013073ffffffffffffffffffffffffffffffffffffffff16815260200182815260200160001515815250600b60008481526020019081526020016000206000820151816000015560208201518160010160006101000a81548173ffffffffffffffffffffffffffffffffffffffff021916908373ffffffffffffffffffffffffffffffffffffffff16021790555060408201518160020160006101000a81548173ffffffffffffffffffffffffffffffffffffffff021916908373ffffffffffffffffffffffffffffffffffffffff1602179055506060820151816003015560808201518160040160006101000a81548160ff0219169083151502179055509050506122d7333084611c55565b817fb640004f1d14576d0c209e240cad0410e0d8c0c33a09375861fbadae2588a98d333084600060405161230e9493929190613edd565b60405180910390a25050565b8173ffffffffffffffffffffffffffffffffffffffff168373ffffffffffffffffffffffffffffffffffffffff1603612388576040517f08c379a000000000000000000000000000000000000000000000000000000000815260040161237f90613f6e565b60405180910390fd5b80600560008573ffffffffffffffffffffffffffffffffffffffff1673ffffffffffffffffffffffffffffffffffffffff16815260200190815260200160002060008473ffffffffffffffffffffffffffffffffffffffff1673ffffffffffffffffffffffffffffffffffffffff16815260200190815260200160002060006101000a81548160ff0219169083151502179055508173ffffffffffffffffffffffffffffffffffffffff168373ffffffffffffffffffffffffffffffffffffffff167f17307eab39ab6107e8899845ad3d59bd9653f200f220920489ca2b5937696c31836040516124799190612a4e565b60405180910390a3505050565b612491848484611c55565b61249d84848484612633565b6124dc576040517f08c379a00000000000000000000000000000000000000000000000000000000081526004016124d390614000565b60405180910390fd5b50505050565b606060405180602001604052806000815250905090565b606061250482611aa6565b600061250e6124e2565b9050600081511161252e5760405180602001604052806000815250612559565b80612538846127ba565b60405160200161254992919061381d565b6040516020818303038152906040525b915050919050565b600081600001549050600081116125ad576040517f08c379a00000000000000000000000000000000000000000000000000000000081526004016125a49061406c565b60405180910390fd5b6001810382600001819055505050565b60008073ffffffffffffffffffffffffffffffffffffffff166002600084815260200190815260200160002060009054906101000a900473ffffffffffffffffffffffffffffffffffffffff1673ffffffffffffffffffffffffffffffffffffffff1614159050919050565b505050565b505050565b60006126548473ffffffffffffffffffffffffffffffffffffffff1661291a565b156127ad578373ffffffffffffffffffffffffffffffffffffffff1663150b7a0261267d611af1565b8786866040518563ffffffff1660e01b815260040161269f94939291906140e1565b6020604051808303816000875af19250505080156126db57506040513d601f19601f820116820180604052508101906126d89190614142565b60015b61275d573d806000811461270b576040519150601f19603f3d011682016040523d82523d6000602084013e612710565b606091505b506000815103612755576040517f08c379a000000000000000000000000000000000000000000000000000000000815260040161274c90614000565b60405180910390fd5b805181602001fd5b63150b7a0260e01b7bffffffffffffffffffffffffffffffffffffffffffffffffffffffff1916817bffffffffffffffffffffffffffffffffffffffffffffffffffffffff1916149150506127b2565b600190505b949350505050565b606060008203612801576040518060400160405280600181526020017f30000000000000000000000000000000000000000000000000000000000000008152509050612915565b600082905060005b6000821461283357808061281c90613453565b915050600a8261282c919061419e565b9150612809565b60008167ffffffffffffffff81111561284f5761284e612e72565b5b6040519080825280601f01601f1916602001820160405280156128815781602001600182028036833780820191505090505b5090505b6000851461290e5760018261289a91906133bc565b9150600a856128a991906141cf565b60306128b591906133f0565b60f81b8183815181106128cb576128ca613424565b5b60200101907effffffffffffffffffffffffffffffffffffffffffffffffffffffffffffff1916908160001a905350600a85612907919061419e565b9450612885565b8093505050505b919050565b6000808273ffffffffffffffffffffffffffffffffffffffff163b119050919050565b6040518060a0016040528060008152602001600073ffffffffffffffffffffffffffffffffffffffff168152602001600073ffffffffffffffffffffffffffffffffffffffff168152602001600081526020016000151581525090565b6000604051905090565b600080fd5b600080fd5b60007fffffffff0000000000000000000000000000000000000000000000000000000082169050919050565b6129e3816129ae565b81146129ee57600080fd5b50565b600081359050612a00816129da565b92915050565b600060208284031215612a1c57612a1b6129a4565b5b6000612a2a848285016129f1565b91505092915050565b60008115159050919050565b612a4881612a33565b82525050565b6000602082019050612a636000830184612a3f565b92915050565b600081519050919050565b600082825260208201905092915050565b60005b83811015612aa3578082015181840152602081019050612a88565b60008484015250505050565b6000601f19601f8301169050919050565b6000612acb82612a69565b612ad58185612a74565b9350612ae5818560208601612a85565b612aee81612aaf565b840191505092915050565b60006020820190508181036000830152612b138184612ac0565b905092915050565b6000819050919050565b612b2e81612b1b565b8114612b3957600080fd5b50565b600081359050612b4b81612b25565b92915050565b600060208284031215612b6757612b666129a4565b5b6000612b7584828501612b3c565b91505092915050565b600073ffffffffffffffffffffffffffffffffffffffff82169050919050565b6000612ba982612b7e565b9050919050565b612bb981612b9e565b82525050565b6000602082019050612bd46000830184612bb0565b92915050565b612be381612b9e565b8114612bee57600080fd5b50565b600081359050612c0081612bda565b92915050565b60008060408385031215612c1d57612c1c6129a4565b5b6000612c2b85828601612bf1565b9250506020612c3c85828601612b3c565b9150509250929050565b600081519050919050565b600082825260208201905092915050565b6000819050602082019050919050565b612c7b81612b1b565b82525050565b6000612c8c82612b7e565b9050919050565b612c9c81612c81565b82525050565b612cab81612a33565b82525050565b60a082016000820151612cc76000850182612c72565b506020820151612cda6020850182612c93565b506040820151612ced6040850182612c93565b506060820151612d006060850182612c72565b506080820151612d136080850182612ca2565b50505050565b6000612d258383612cb1565b60a08301905092915050565b6000602082019050919050565b6000612d4982612c46565b612d538185612c51565b9350612d5e83612c62565b8060005b83811015612d8f578151612d768882612d19565b9750612d8183612d31565b925050600181019050612d62565b5085935050505092915050565b60006020820190508181036000830152612db68184612d3e565b905092915050565b612dc781612b1b565b82525050565b6000602082019050612de26000830184612dbe565b92915050565b600080600060608486031215612e0157612e006129a4565b5b6000612e0f86828701612bf1565b9350506020612e2086828701612bf1565b9250506040612e3186828701612b3c565b9150509250925092565b600060208284031215612e5157612e506129a4565b5b6000612e5f84828501612bf1565b91505092915050565b600080fd5b600080fd5b7f4e487b7100000000000000000000000000000000000000000000000000000000600052604160045260246000fd5b612eaa82612aaf565b810181811067ffffffffffffffff82111715612ec957612ec8612e72565b5b80604052505050565b6000612edc61299a565b9050612ee88282612ea1565b919050565b600067ffffffffffffffff821115612f0857612f07612e72565b5b612f1182612aaf565b9050602081019050919050565b82818337600083830152505050565b6000612f40612f3b84612eed565b612ed2565b905082815260208101848484011115612f5c57612f5b612e6d565b5b612f67848285612f1e565b509392505050565b600082601f830112612f8457612f83612e68565b5b8135612f94848260208601612f2d565b91505092915050565b60008060408385031215612fb457612fb36129a4565b5b600083013567ffffffffffffffff811115612fd257612fd16129a9565b5b612fde85828601612f6f565b9250506020612fef85828601612b3c565b9150509250929050565b61300281612a33565b811461300d57600080fd5b50565b60008135905061301f81612ff9565b92915050565b6000806040838503121561303c5761303b6129a4565b5b600061304a85828601612bf1565b925050602061305b85828601613010565b9150509250929050565b600067ffffffffffffffff8211156130805761307f612e72565b5b61308982612aaf565b9050602081019050919050565b60006130a96130a484613065565b612ed2565b9050828152602081018484840111156130c5576130c4612e6d565b5b6130d0848285612f1e565b509392505050565b600082601f8301126130ed576130ec612e68565b5b81356130fd848260208601613096565b91505092915050565b600080600080608085870312156131205761311f6129a4565b5b600061312e87828801612bf1565b945050602061313f87828801612bf1565b935050604061315087828801612b3c565b925050606085013567ffffffffffffffff811115613171576131706129a9565b5b61317d878288016130d8565b91505092959194509250565b600080604083850312156131a05761319f6129a4565b5b60006131ae85828601612b3c565b92505060206131bf85828601612b3c565b9150509250929050565b600080604083850312156131e0576131df6129a4565b5b60006131ee85828601612bf1565b92505060206131ff85828601612bf1565b9150509250929050565b7f4e487b7100000000000000000000000000000000000000000000000000000000600052602260045260246000fd5b6000600282049050600182168061325057607f821691505b60208210810361326357613262613209565b5b50919050565b7f4552433732313a20617070726f76616c20746f2063757272656e74206f776e6560008201527f7200000000000000000000000000000000000000000000000000000000000000602082015250565b60006132c5602183612a74565b91506132d082613269565b604082019050919050565b600060208201905081810360008301526132f4816132b8565b9050919050565b7f4552433732313a20617070726f76652063616c6c6572206973206e6f7420746f60008201527f6b656e206f776e6572206e6f7220617070726f76656420666f7220616c6c0000602082015250565b6000613357603e83612a74565b9150613362826132fb565b604082019050919050565b600060208201905081810360008301526133868161334a565b9050919050565b7f4e487b7100000000000000000000000000000000000000000000000000000000600052601160045260246000fd5b60006133c782612b1b565b91506133d283612b1b565b92508282039050818111156133ea576133e961338d565b5b92915050565b60006133fb82612b1b565b915061340683612b1b565b925082820190508082111561341e5761341d61338d565b5b92915050565b7f4e487b7100000000000000000000000000000000000000000000000000000000600052603260045260246000fd5b600061345e82612b1b565b91507fffffffffffffffffffffffffffffffffffffffffffffffffffffffffffffffff82036134905761348f61338d565b5b600182019050919050565b7f4552433732313a2063616c6c6572206973206e6f7420746f6b656e206f776e6560008201527f72206e6f7220617070726f766564000000000000000000000000000000000000602082015250565b60006134f7602e83612a74565b91506135028261349b565b604082019050919050565b60006020820190508181036000830152613526816134ea565b9050919050565b7f4552433732313a20696e76616c696420746f6b656e2049440000000000000000600082015250565b6000613563601883612a74565b915061356e8261352d565b602082019050919050565b6000602082019050818103600083015261359281613556565b9050919050565b7f4552433732313a2061646472657373207a65726f206973206e6f74206120766160008201527f6c6964206f776e65720000000000000000000000000000000000000000000000602082015250565b60006135f5602983612a74565b915061360082613599565b604082019050919050565b60006020820190508181036000830152613624816135e8565b9050919050565b7f6f6e6c79206f776e6572206f6620746865206d61726b6574706c61636520636160008201527f6e206368616e676520746865206c697374696e67207072696365000000000000602082015250565b6000613687603a83612a74565b91506136928261362b565b604082019050919050565b600060208201905081810360008301526136b68161367a565b9050919050565b7f4f6e6c79206d61726b6574706c616365206f776e65722063616e20757064617460008201527f65206c697374696e672070726963652e00000000000000000000000000000000602082015250565b6000613719603083612a74565b9150613724826136bd565b604082019050919050565b600060208201905081810360008301526137488161370c565b9050919050565b7f506c65617365207375626d6974207468652061736b696e67207072696365206960008201527f6e206f7264657220746f20636f6d706c65746520746865207075726368617365602082015250565b60006137ab604083612a74565b91506137b68261374f565b604082019050919050565b600060208201905081810360008301526137da8161379e565b9050919050565b600081905092915050565b60006137f782612a69565b61380181856137e1565b9350613811818560208601612a85565b80840191505092915050565b600061382982856137ec565b915061383582846137ec565b91508190509392505050565b7f4f6e6c79206974656d206f776e65722063616e20706572666f726d207468697360008201527f206f7065726174696f6e00000000000000000000000000000000000000000000602082015250565b600061389d602a83612a74565b91506138a882613841565b604082019050919050565b600060208201905081810360008301526138cc81613890565b9050919050565b7f5072696365206d75737420626520657175616c20746f206c697374696e67207060008201527f7269636500000000000000000000000000000000000000000000000000000000602082015250565b600061392f602483612a74565b915061393a826138d3565b604082019050919050565b6000602082019050818103600083015261395e81613922565b9050919050565b7f4552433732313a207472616e736665722066726f6d20696e636f72726563742060008201527f6f776e6572000000000000000000000000000000000000000000000000000000602082015250565b60006139c1602583612a74565b91506139cc82613965565b604082019050919050565b600060208201905081810360008301526139f0816139b4565b9050919050565b7f4552433732313a207472616e7366657220746f20746865207a65726f2061646460008201527f7265737300000000000000000000000000000000000000000000000000000000602082015250565b6000613a53602483612a74565b9150613a5e826139f7565b604082019050919050565b60006020820190508181036000830152613a8281613a46565b9050919050565b7f4552433732313a206d696e7420746f20746865207a65726f2061646472657373600082015250565b6000613abf602083612a74565b9150613aca82613a89565b602082019050919050565b60006020820190508181036000830152613aee81613ab2565b9050919050565b7f4552433732313a20746f6b656e20616c7265616479206d696e74656400000000600082015250565b6000613b2b601c83612a74565b9150613b3682613af5565b602082019050919050565b60006020820190508181036000830152613b5a81613b1e565b9050919050565b7f45524337323155524953746f726167653a2055524920736574206f66206e6f6e60008201527f6578697374656e7420746f6b656e000000000000000000000000000000000000602082015250565b6000613bbd602e83612a74565b9150613bc882613b61565b604082019050919050565b60006020820190508181036000830152613bec81613bb0565b9050919050565b60008190508160005260206000209050919050565b60006020601f8301049050919050565b600082821b905092915050565b600060088302613c557fffffffffffffffffffffffffffffffffffffffffffffffffffffffffffffffff82613c18565b613c5f8683613c18565b95508019841693508086168417925050509392505050565b6000819050919050565b6000613c9c613c97613c9284612b1b565b613c77565b612b1b565b9050919050565b6000819050919050565b613cb683613c81565b613cca613cc282613ca3565b848454613c25565b825550505050565b600090565b613cdf613cd2565b613cea818484613cad565b505050565b5b81811015613d0e57613d03600082613cd7565b600181019050613cf0565b5050565b601f821115613d5357613d2481613bf3565b613d2d84613c08565b81016020851015613d3c578190505b613d50613d4885613c08565b830182613cef565b50505b505050565b600082821c905092915050565b6000613d7660001984600802613d58565b1980831691505092915050565b6000613d8f8383613d65565b9150826002028217905092915050565b613da882612a69565b67ffffffffffffffff811115613dc157613dc0612e72565b5b613dcb8254613238565b613dd6828285613d12565b600060209050601f831160018114613e095760008415613df7578287015190505b613e018582613d83565b865550613e69565b601f198416613e1786613bf3565b60005b82811015613e3f57848901518255600182019150602085019450602081019050613e1a565b86831015613e5c5784890151613e58601f891682613d65565b8355505b6001600288020188555050505b505050505050565b7f5072696365206d757374206265206174206c6561737420312077656900000000600082015250565b6000613ea7601c83612a74565b9150613eb282613e71565b602082019050919050565b60006020820190508181036000830152613ed681613e9a565b9050919050565b6000608082019050613ef26000830187612bb0565b613eff6020830186612bb0565b613f0c6040830185612dbe565b613f196060830184612a3f565b95945050505050565b7f4552433732313a20617070726f766520746f2063616c6c657200000000000000600082015250565b6000613f58601983612a74565b9150613f6382613f22565b602082019050919050565b60006020820190508181036000830152613f8781613f4b565b9050919050565b7f4552433732313a207472616e7366657220746f206e6f6e20455243373231526560008201527f63656976657220696d706c656d656e7465720000000000000000000000000000602082015250565b6000613fea603283612a74565b9150613ff582613f8e565b604082019050919050565b6000602082019050818103600083015261401981613fdd565b9050919050565b7f436f756e7465723a2064656372656d656e74206f766572666c6f770000000000600082015250565b6000614056601b83612a74565b915061406182614020565b602082019050919050565b6000602082019050818103600083015261408581614049565b9050919050565b600081519050919050565b600082825260208201905092915050565b60006140b38261408c565b6140bd8185614097565b93506140cd818560208601612a85565b6140d681612aaf565b840191505092915050565b60006080820190506140f66000830187612bb0565b6141036020830186612bb0565b6141106040830185612dbe565b818103606083015261412281846140a8565b905095945050505050565b60008151905061413c816129da565b92915050565b600060208284031215614158576141576129a4565b5b60006141668482850161412d565b91505092915050565b7f4e487b7100000000000000000000000000000000000000000000000000000000600052601260045260246000fd5b60006141a982612b1b565b91506141b483612b1b565b9250826141c4576141c361416f565b5b828204905092915050565b60006141da82612b1b565b91506141e583612b1b565b9250826141f5576141f461416f565b5b82820690509291505056fea26469706673582212205829259d5a0321c048396e7c706e1d30b859720b5e41f253987e7d36f702ed0464736f6c63430008110033",
  "linkReferences": {},
  "deployedLinkReferences": {}
}