{
    "_format": "hh-sol-artifact-1",
    "contractName": "TransferFunds",
    "sourceName": "contracts/TransferFunds.sol",
    "abi": [
        {
            "anonymous": false,
            "inputs": [
                {
                    "indexed": false,
                    "internalType": "address",
                    "name": "from",
                    "type": "address"
                },
                {
                    "indexed": false,
                    "internalType": "address",
                    "name": "receiver",
                    "type": "address"
                },
                {
                    "indexed": false,
                    "internalType": "uint256",
                    "name": "amount",
                    "type": "uint256"
                },
                {
                    "indexed": false,
                    "internalType": "string",
                    "name": "message",
                    "type": "string"
                },
                {
                    "indexed": false,
                    "internalType": "uint256",
                    "name": "timestamp",
                    "type": "uint256"
                }
            ],
            "name": "TransferEvent",
            "type": "event"
        },
        {
            "inputs": [
                {
                    "internalType": "address payable",
                    "name": "receiver",
                    "type": "address"
                },
                {
                    "internalType": "uint256",
                    "name": "amount",
                    "type": "uint256"
                },
                {
                    "internalType": "string",
                    "name": "message",
                    "type": "string"
                }
            ],
            "name": "addDataToBlockchain",
            "outputs": [],
            "stateMutability": "nonpayable",
            "type": "function"
        },
        {
            "inputs": [],
            "name": "getAllTransactions",
            "outputs": [
                {
                    "components": [
                        {
                            "internalType": "address",
                            "name": "sender",
                            "type": "address"
                        },
                        {
                            "internalType": "address",
                            "name": "receiver",
                            "type": "address"
                        },
                        {
                            "internalType": "uint256",
                            "name": "amount",
                            "type": "uint256"
                        },
                        {
                            "internalType": "string",
                            "name": "message",
                            "type": "string"
                        },
                        {
                            "internalType": "uint256",
                            "name": "timestamp",
                            "type": "uint256"
                        }
                    ],
                    "internalType": "struct TransferFunds.TransferFundsStruck[]",
                    "name": "",
                    "type": "tuple[]"
                }
            ],
            "stateMutability": "view",
            "type": "function"
        },
        {
            "inputs": [],
            "name": "getTransactionCount",
            "outputs": [
                {
                    "internalType": "uint256",
                    "name": "",
                    "type": "uint256"
                }
            ],
            "stateMutability": "view",
            "type": "function"
        }
    ],
    "bytecode": "0x608060405234801561001057600080fd5b50610cfc806100206000396000f3fe608060405234801561001057600080fd5b50600436106100415760003560e01c806327506f53146100465780632e7700f0146100645780633a0a073314610082575b600080fd5b61004e61009e565b60405161005b919061060f565b60405180910390f35b61006c61024f565b6040516100799190610640565b60405180910390f35b61009c6004803603810190610097919061080e565b610258565b005b60606001805480602002602001604051908101604052809291908181526020016000905b8282101561024657838290600052602060002090600502016040518060a00160405290816000820160009054906101000a900473ffffffffffffffffffffffffffffffffffffffff1673ffffffffffffffffffffffffffffffffffffffff1673ffffffffffffffffffffffffffffffffffffffff1681526020016001820160009054906101000a900473ffffffffffffffffffffffffffffffffffffffff1673ffffffffffffffffffffffffffffffffffffffff1673ffffffffffffffffffffffffffffffffffffffff168152602001600282015481526020016003820180546101ab906108ac565b80601f01602080910402602001604051908101604052809291908181526020018280546101d7906108ac565b80156102245780601f106101f957610100808354040283529160200191610224565b820191906000526020600020905b81548152906001019060200180831161020757829003601f168201915b50505050508152602001600482015481525050815260200190600101906100c2565b50505050905090565b60008054905090565b600160008082825461026a919061090c565b9250508190555060016040518060a001604052803373ffffffffffffffffffffffffffffffffffffffff1681526020018573ffffffffffffffffffffffffffffffffffffffff16815260200184815260200183815260200142815250908060018154018082558091505060019003906000526020600020906005020160009091909190915060008201518160000160006101000a81548173ffffffffffffffffffffffffffffffffffffffff021916908373ffffffffffffffffffffffffffffffffffffffff16021790555060208201518160010160006101000a81548173ffffffffffffffffffffffffffffffffffffffff021916908373ffffffffffffffffffffffffffffffffffffffff16021790555060408201518160020155606082015181600301908161039c9190610aec565b506080820151816004015550507f3cf6265a3418fd153ac0fad02c457db25dda3d9006869d68880a17c525b626b333848484426040516103e0959493929190610c6c565b60405180910390a1505050565b600081519050919050565b600082825260208201905092915050565b6000819050602082019050919050565b600073ffffffffffffffffffffffffffffffffffffffff82169050919050565b600061044482610419565b9050919050565b61045481610439565b82525050565b6000819050919050565b61046d8161045a565b82525050565b600081519050919050565b600082825260208201905092915050565b60005b838110156104ad578082015181840152602081019050610492565b60008484015250505050565b6000601f19601f8301169050919050565b60006104d582610473565b6104df818561047e565b93506104ef81856020860161048f565b6104f8816104b9565b840191505092915050565b600060a08301600083015161051b600086018261044b565b50602083015161052e602086018261044b565b5060408301516105416040860182610464565b506060830151848203606086015261055982826104ca565b915050608083015161056e6080860182610464565b508091505092915050565b60006105858383610503565b905092915050565b6000602082019050919050565b60006105a5826103ed565b6105af81856103f8565b9350836020820285016105c185610409565b8060005b858110156105fd57848403895281516105de8582610579565b94506105e98361058d565b925060208a019950506001810190506105c5565b50829750879550505050505092915050565b60006020820190508181036000830152610629818461059a565b905092915050565b61063a8161045a565b82525050565b60006020820190506106556000830184610631565b92915050565b6000604051905090565b600080fd5b600080fd5b600061067a82610419565b9050919050565b61068a8161066f565b811461069557600080fd5b50565b6000813590506106a781610681565b92915050565b6106b68161045a565b81146106c157600080fd5b50565b6000813590506106d3816106ad565b92915050565b600080fd5b600080fd5b7f4e487b7100000000000000000000000000000000000000000000000000000000600052604160045260246000fd5b61071b826104b9565b810181811067ffffffffffffffff8211171561073a576107396106e3565b5b80604052505050565b600061074d61065b565b90506107598282610712565b919050565b600067ffffffffffffffff821115610779576107786106e3565b5b610782826104b9565b9050602081019050919050565b82818337600083830152505050565b60006107b16107ac8461075e565b610743565b9050828152602081018484840111156107cd576107cc6106de565b5b6107d884828561078f565b509392505050565b600082601f8301126107f5576107f46106d9565b5b813561080584826020860161079e565b91505092915050565b60008060006060848603121561082757610826610665565b5b600061083586828701610698565b9350506020610846868287016106c4565b925050604084013567ffffffffffffffff8111156108675761086661066a565b5b610873868287016107e0565b9150509250925092565b7f4e487b7100000000000000000000000000000000000000000000000000000000600052602260045260246000fd5b600060028204905060018216806108c457607f821691505b6020821081036108d7576108d661087d565b5b50919050565b7f4e487b7100000000000000000000000000000000000000000000000000000000600052601160045260246000fd5b60006109178261045a565b91506109228361045a565b925082820190508082111561093a576109396108dd565b5b92915050565b60008190508160005260206000209050919050565b60006020601f8301049050919050565b600082821b905092915050565b6000600883026109a27fffffffffffffffffffffffffffffffffffffffffffffffffffffffffffffffff82610965565b6109ac8683610965565b95508019841693508086168417925050509392505050565b6000819050919050565b60006109e96109e46109df8461045a565b6109c4565b61045a565b9050919050565b6000819050919050565b610a03836109ce565b610a17610a0f826109f0565b848454610972565b825550505050565b600090565b610a2c610a1f565b610a378184846109fa565b505050565b5b81811015610a5b57610a50600082610a24565b600181019050610a3d565b5050565b601f821115610aa057610a7181610940565b610a7a84610955565b81016020851015610a89578190505b610a9d610a9585610955565b830182610a3c565b50505b505050565b600082821c905092915050565b6000610ac360001984600802610aa5565b1980831691505092915050565b6000610adc8383610ab2565b9150826002028217905092915050565b610af582610473565b67ffffffffffffffff811115610b0e57610b0d6106e3565b5b610b1882546108ac565b610b23828285610a5f565b600060209050601f831160018114610b565760008415610b44578287015190505b610b4e8582610ad0565b865550610bb6565b601f198416610b6486610940565b60005b82811015610b8c57848901518255600182019150602085019450602081019050610b67565b86831015610ba95784890151610ba5601f891682610ab2565b8355505b6001600288020188555050505b505050505050565b610bc781610439565b82525050565b6000610be8610be3610bde84610419565b6109c4565b610419565b9050919050565b6000610bfa82610bcd565b9050919050565b6000610c0c82610bef565b9050919050565b610c1c81610c01565b82525050565b600082825260208201905092915050565b6000610c3e82610473565b610c488185610c22565b9350610c5881856020860161048f565b610c61816104b9565b840191505092915050565b600060a082019050610c816000830188610bbe565b610c8e6020830187610c13565b610c9b6040830186610631565b8181036060830152610cad8185610c33565b9050610cbc6080830184610631565b969550505050505056fea264697066735822122094a7f759c0c8084450fa4c9e4f55f196f17c3b7eb30015aad3bf71603983e72264736f6c63430008110033",
    "linkReferences": {},
    "deployedLinkReferences": {}
}